{
  "contractName": "InfoContract",
  "abi": [
    {
      "inputs": [],
      "stateMutability": "nonpayable",
      "type": "constructor"
    },
    {
      "inputs": [],
      "name": "age",
      "outputs": [
        {
          "internalType": "uint256",
          "name": "",
          "type": "uint256"
        }
      ],
      "stateMutability": "view",
      "type": "function",
      "constant": true
    },
    {
      "inputs": [],
      "name": "fName",
      "outputs": [
        {
          "internalType": "string",
          "name": "",
          "type": "string"
        }
      ],
      "stateMutability": "view",
      "type": "function",
      "constant": true
    },
    {
      "inputs": [
        {
          "internalType": "string",
          "name": "_fName",
          "type": "string"
        },
        {
          "internalType": "uint256",
          "name": "_age",
          "type": "uint256"
        }
      ],
      "name": "setInfo",
      "outputs": [],
      "stateMutability": "payable",
      "type": "function",
      "payable": true
    },
    {
      "inputs": [],
      "name": "getInfo",
      "outputs": [
        {
          "internalType": "string",
          "name": "",
          "type": "string"
        },
        {
          "internalType": "uint256",
          "name": "",
          "type": "uint256"
        }
      ],
      "stateMutability": "view",
      "type": "function",
      "constant": true
    }
  ],
  "bytecode": "0x60806040523480156200001157600080fd5b506040518060400160405280600481526020017f746573740000000000000000000000000000000000000000000000000000000081525060009081620000589190620002e1565b50600b600181905550620003c8565b600081519050919050565b7f4e487b7100000000000000000000000000000000000000000000000000000000600052604160045260246000fd5b7f4e487b7100000000000000000000000000000000000000000000000000000000600052602260045260246000fd5b60006002820490506001821680620000e957607f821691505b602082108103620000ff57620000fe620000a1565b5b50919050565b60008190508160005260206000209050919050565b60006020601f8301049050919050565b600082821b905092915050565b600060088302620001697fffffffffffffffffffffffffffffffffffffffffffffffffffffffffffffffff826200012a565b6200017586836200012a565b95508019841693508086168417925050509392505050565b6000819050919050565b6000819050919050565b6000620001c2620001bc620001b6846200018d565b62000197565b6200018d565b9050919050565b6000819050919050565b620001de83620001a1565b620001f6620001ed82620001c9565b84845462000137565b825550505050565b600090565b6200020d620001fe565b6200021a818484620001d3565b505050565b5b8181101562000242576200023660008262000203565b60018101905062000220565b5050565b601f82111562000291576200025b8162000105565b62000266846200011a565b8101602085101562000276578190505b6200028e62000285856200011a565b8301826200021f565b50505b505050565b600082821c905092915050565b6000620002b66000198460080262000296565b1980831691505092915050565b6000620002d18383620002a3565b9150826002028217905092915050565b620002ec8262000067565b67ffffffffffffffff81111562000308576200030762000072565b5b620003148254620000d0565b6200032182828562000246565b600060209050601f83116001811462000359576000841562000344578287015190505b620003508582620002c3565b865550620003c0565b601f198416620003698662000105565b60005b8281101562000393578489015182556001820191506020850194506020810190506200036c565b86831015620003b35784890151620003af601f891682620002a3565b8355505b6001600288020188555050505b505050505050565b61082880620003d86000396000f3fe60806040526004361061003f5760003560e01c8063262a9dff146100445780635a9b0b891461006f5780638262963b1461009b5780639e656a41146100b7575b600080fd5b34801561005057600080fd5b506100596100e2565b6040516100669190610246565b60405180910390f35b34801561007b57600080fd5b506100846100e8565b6040516100929291906102f1565b60405180910390f35b6100b560048036038101906100b09190610496565b610184565b005b3480156100c357600080fd5b506100cc61019f565b6040516100d991906104f2565b60405180910390f35b60015481565b60606000806001548180546100fc90610543565b80601f016020809104026020016040519081016040528092919081815260200182805461012890610543565b80156101755780601f1061014a57610100808354040283529160200191610175565b820191906000526020600020905b81548152906001019060200180831161015857829003601f168201915b50505050509150915091509091565b81600090816101939190610720565b50806001819055505050565b600080546101ac90610543565b80601f01602080910402602001604051908101604052809291908181526020018280546101d890610543565b80156102255780601f106101fa57610100808354040283529160200191610225565b820191906000526020600020905b81548152906001019060200180831161020857829003601f168201915b505050505081565b6000819050919050565b6102408161022d565b82525050565b600060208201905061025b6000830184610237565b92915050565b600081519050919050565b600082825260208201905092915050565b60005b8381101561029b578082015181840152602081019050610280565b60008484015250505050565b6000601f19601f8301169050919050565b60006102c382610261565b6102cd818561026c565b93506102dd81856020860161027d565b6102e6816102a7565b840191505092915050565b6000604082019050818103600083015261030b81856102b8565b905061031a6020830184610237565b9392505050565b6000604051905090565b600080fd5b600080fd5b600080fd5b600080fd5b7f4e487b7100000000000000000000000000000000000000000000000000000000600052604160045260246000fd5b610377826102a7565b810181811067ffffffffffffffff821117156103965761039561033f565b5b80604052505050565b60006103a9610321565b90506103b5828261036e565b919050565b600067ffffffffffffffff8211156103d5576103d461033f565b5b6103de826102a7565b9050602081019050919050565b82818337600083830152505050565b600061040d610408846103ba565b61039f565b9050828152602081018484840111156104295761042861033a565b5b6104348482856103eb565b509392505050565b600082601f83011261045157610450610335565b5b81356104618482602086016103fa565b91505092915050565b6104738161022d565b811461047e57600080fd5b50565b6000813590506104908161046a565b92915050565b600080604083850312156104ad576104ac61032b565b5b600083013567ffffffffffffffff8111156104cb576104ca610330565b5b6104d78582860161043c565b92505060206104e885828601610481565b9150509250929050565b6000602082019050818103600083015261050c81846102b8565b905092915050565b7f4e487b7100000000000000000000000000000000000000000000000000000000600052602260045260246000fd5b6000600282049050600182168061055b57607f821691505b60208210810361056e5761056d610514565b5b50919050565b60008190508160005260206000209050919050565b60006020601f8301049050919050565b600082821b905092915050565b6000600883026105d67fffffffffffffffffffffffffffffffffffffffffffffffffffffffffffffffff82610599565b6105e08683610599565b95508019841693508086168417925050509392505050565b6000819050919050565b600061061d6106186106138461022d565b6105f8565b61022d565b9050919050565b6000819050919050565b61063783610602565b61064b61064382610624565b8484546105a6565b825550505050565b600090565b610660610653565b61066b81848461062e565b505050565b5b8181101561068f57610684600082610658565b600181019050610671565b5050565b601f8211156106d4576106a581610574565b6106ae84610589565b810160208510156106bd578190505b6106d16106c985610589565b830182610670565b50505b505050565b600082821c905092915050565b60006106f7600019846008026106d9565b1980831691505092915050565b600061071083836106e6565b9150826002028217905092915050565b61072982610261565b67ffffffffffffffff8111156107425761074161033f565b5b61074c8254610543565b610757828285610693565b600060209050601f83116001811461078a5760008415610778578287015190505b6107828582610704565b8655506107ea565b601f19841661079886610574565b60005b828110156107c05784890151825560018201915060208501945060208101905061079b565b868310156107dd57848901516107d9601f8916826106e6565b8355505b6001600288020188555050505b50505050505056fea264697066735822122086ef33de7d3669dcee52a45a3d774ba1f35099f7c397462e4943ed58a626223464736f6c63430008120033",
  "immutableReferences": {},
  "source": "// SPDX-License-Identifier: GPL-3.0\npragma solidity >=0.5.16;\n\ncontract InfoContract{\n   string public fName;\n   uint public age;\n   \n   constructor() public {\n        fName = \"test\";\n        age = 11;\n    }\n\n   function setInfo(string memory _fName, uint _age) public payable{\n       fName = _fName;\n       age = _age;\n   }\n   \n   function getInfo() public view returns (string memory, uint) {\n       return (fName, age);\n   }   \n}",
  "sourcePath": "/home/mmm/testCode/testHe/contracts/InfoContract.sol",
  "compiler": {
    "name": "solc",
    "version": "0.8.18+commit.87f61d96.Emscripten.clang"
  },
  "schemaVersion": "3.4.12",
  "updatedAt": "2023-03-04T08:13:28.462Z",
  "networkType": "ethereum",
  "devdoc": {
    "kind": "dev",
    "methods": {},
    "version": 1
  },
  "userdoc": {
    "kind": "user",
    "methods": {},
    "version": 1
  }
}