{
  "contractName": "StoreMap",
  "abi": [
    {
      "constant": true,
      "inputs": [
        {
          "internalType": "bytes32",
          "name": "",
          "type": "bytes32"
        }
      ],
      "name": "adjacencyList",
      "outputs": [
        {
          "internalType": "uint256",
          "name": "adjnum",
          "type": "uint256"
        }
      ],
      "payable": false,
      "stateMutability": "view",
      "type": "function"
    },
    {
      "constant": true,
      "inputs": [
        {
          "internalType": "bytes32",
          "name": "",
          "type": "bytes32"
        }
      ],
      "name": "geo_maps",
      "outputs": [
        {
          "internalType": "uint256",
          "name": "num",
          "type": "uint256"
        }
      ],
      "payable": false,
      "stateMutability": "view",
      "type": "function"
    },
    {
      "constant": true,
      "inputs": [
        {
          "internalType": "bytes32",
          "name": "hash",
          "type": "bytes32"
        }
      ],
      "name": "get_types",
      "outputs": [
        {
          "internalType": "int32[]",
          "name": "feature",
          "type": "int32[]"
        },
        {
          "internalType": "bytes32[]",
          "name": "names",
          "type": "bytes32[]"
        },
        {
          "internalType": "bytes32[]",
          "name": "highways",
          "type": "bytes32[]"
        },
        {
          "internalType": "bytes32[]",
          "name": "gtypes",
          "type": "bytes32[]"
        },
        {
          "internalType": "bytes32[]",
          "name": "path",
          "type": "bytes32[]"
        }
      ],
      "payable": false,
      "stateMutability": "view",
      "type": "function"
    },
    {
      "constant": false,
      "inputs": [
        {
          "internalType": "uint256",
          "name": "gid",
          "type": "uint256"
        },
        {
          "internalType": "int32",
          "name": "minzoom",
          "type": "int32"
        },
        {
          "internalType": "int32",
          "name": "cost",
          "type": "int32"
        },
        {
          "internalType": "int32",
          "name": "source",
          "type": "int32"
        },
        {
          "internalType": "int32",
          "name": "target",
          "type": "int32"
        },
        {
          "internalType": "bool",
          "name": "oneway",
          "type": "bool"
        },
        {
          "internalType": "bool",
          "name": "building",
          "type": "bool"
        },
        {
          "internalType": "bytes32",
          "name": "highway",
          "type": "bytes32"
        },
        {
          "internalType": "bytes32",
          "name": "name",
          "type": "bytes32"
        },
        {
          "internalType": "bytes32",
          "name": "gtype",
          "type": "bytes32"
        },
        {
          "internalType": "bytes32[]",
          "name": "path",
          "type": "bytes32[]"
        }
      ],
      "name": "add_onetype",
      "outputs": [],
      "payable": false,
      "stateMutability": "nonpayable",
      "type": "function"
    },
    {
      "constant": false,
      "inputs": [
        {
          "internalType": "bytes32",
          "name": "hash",
          "type": "bytes32"
        },
        {
          "internalType": "uint256",
          "name": "gid",
          "type": "uint256"
        }
      ],
      "name": "add_area_line",
      "outputs": [],
      "payable": false,
      "stateMutability": "nonpayable",
      "type": "function"
    },
    {
      "constant": false,
      "inputs": [
        {
          "internalType": "bytes32",
          "name": "startGeohash",
          "type": "bytes32"
        },
        {
          "internalType": "bytes32",
          "name": "endGeohash",
          "type": "bytes32"
        }
      ],
      "name": "astar",
      "outputs": [
        {
          "internalType": "bytes32[]",
          "name": "backwards",
          "type": "bytes32[]"
        },
        {
          "internalType": "uint256",
          "name": "costAll",
          "type": "uint256"
        }
      ],
      "payable": false,
      "stateMutability": "nonpayable",
      "type": "function"
    },
    {
      "constant": true,
      "inputs": [
        {
          "internalType": "bytes32",
          "name": "nextGeohash",
          "type": "bytes32"
        },
        {
          "internalType": "bytes32",
          "name": "endGeohash",
          "type": "bytes32"
        }
      ],
      "name": "manhattan",
      "outputs": [
        {
          "internalType": "uint256",
          "name": "",
          "type": "uint256"
        }
      ],
      "payable": false,
      "stateMutability": "view",
      "type": "function"
    },
    {
      "constant": false,
      "inputs": [
        {
          "internalType": "uint256",
          "name": "newPrecision",
          "type": "uint256"
        }
      ],
      "name": "changePrecision",
      "outputs": [
        {
          "internalType": "uint256",
          "name": "",
          "type": "uint256"
        }
      ],
      "payable": false,
      "stateMutability": "nonpayable",
      "type": "function"
    },
    {
      "constant": false,
      "inputs": [
        {
          "internalType": "uint256",
          "name": "newP",
          "type": "uint256"
        }
      ],
      "name": "changeP",
      "outputs": [
        {
          "internalType": "uint256",
          "name": "",
          "type": "uint256"
        }
      ],
      "payable": false,
      "stateMutability": "nonpayable",
      "type": "function"
    },
    {
      "constant": true,
      "inputs": [
        {
          "internalType": "bytes32",
          "name": "geohash1",
          "type": "bytes32"
        },
        {
          "internalType": "bytes32",
          "name": "geohash2",
          "type": "bytes32"
        }
      ],
      "name": "sliceGeoHash",
      "outputs": [
        {
          "internalType": "string",
          "name": "",
          "type": "string"
        },
        {
          "internalType": "string",
          "name": "",
          "type": "string"
        }
      ],
      "payable": false,
      "stateMutability": "view",
      "type": "function"
    },
    {
      "constant": true,
      "inputs": [
        {
          "internalType": "string",
          "name": "geohash",
          "type": "string"
        }
      ],
      "name": "getLatBlock",
      "outputs": [
        {
          "internalType": "uint256",
          "name": "",
          "type": "uint256"
        }
      ],
      "payable": false,
      "stateMutability": "view",
      "type": "function"
    },
    {
      "constant": true,
      "inputs": [
        {
          "internalType": "string",
          "name": "geohash",
          "type": "string"
        }
      ],
      "name": "getLonBlock",
      "outputs": [
        {
          "internalType": "uint256",
          "name": "",
          "type": "uint256"
        }
      ],
      "payable": false,
      "stateMutability": "view",
      "type": "function"
    },
    {
      "constant": true,
      "inputs": [],
      "name": "top",
      "outputs": [
        {
          "internalType": "bytes32",
          "name": "",
          "type": "bytes32"
        }
      ],
      "payable": false,
      "stateMutability": "view",
      "type": "function"
    },
    {
      "constant": false,
      "inputs": [],
      "name": "dequeue",
      "outputs": [],
      "payable": false,
      "stateMutability": "nonpayable",
      "type": "function"
    },
    {
      "constant": false,
      "inputs": [
        {
          "internalType": "bytes32",
          "name": "geohash",
          "type": "bytes32"
        },
        {
          "internalType": "uint256",
          "name": "cost",
          "type": "uint256"
        }
      ],
      "name": "enqueue",
      "outputs": [],
      "payable": false,
      "stateMutability": "nonpayable",
      "type": "function"
    }
  ],
  "bytecode": "0x608060405260016003556008600a556040518060a00160405280601060ff168152602001600860ff168152602001600460ff168152602001600260ff168152602001600160ff16815250600b9060056200005b929190620000be565b506040518060400160405280602081526020017f30313233343536373839626364656667686a6b6d6e707172737475767778797a815250600c9080519060200190620000a992919062000115565b50348015620000b757600080fd5b50620001c4565b82805482825590600052602060002090810192821562000102579160200282015b8281111562000101578251829060ff16905591602001919060010190620000df565b5b5090506200011191906200019c565b5090565b828054600181600116156101000203166002900490600052602060002090601f016020900481019282601f106200015857805160ff191683800117855562000189565b8280016001018555821562000189579182015b82811115620001885782518255916020019190600101906200016b565b5b5090506200019891906200019c565b5090565b620001c191905b80821115620001bd576000816000905550600101620001a3565b5090565b90565b61229280620001d46000396000f3fe608060405234801561001057600080fd5b50600436106100f55760003560e01c8063bc6331da11610097578063d35a1d0d11610066578063d35a1d0d14610750578063f90e5ca914610792578063fdcd80aa146107ca578063fe6dcdba146108e7576100f5565b8063bc6331da146105f6578063cbf3b01e14610638578063cd3d71961461067a578063d1cf2408146106bc576100f5565b806353f065fd116100d357806353f065fd146103a457806368ba6df9146103f05780637f6d50c9146104bf578063957908d1146105ec576100f5565b806313372041146100fa5780633fb805821461013257806344cf2cd7146102d5575b600080fd5b6101306004803603604081101561011057600080fd5b810190808035906020019092919080359060200190929190505050610905565b005b61015e6004803603602081101561014857600080fd5b8101908080359060200190929190505050610aae565b60405180806020018060200180602001806020018060200186810386528b818151815260200191508051906020019060200280838360005b838110156101b1578082015181840152602081019050610196565b5050505090500186810385528a818151815260200191508051906020019060200280838360005b838110156101f35780820151818401526020810190506101d8565b50505050905001868103845289818151815260200191508051906020019060200280838360005b8381101561023557808201518184015260208101905061021a565b50505050905001868103835288818151815260200191508051906020019060200280838360005b8381101561027757808201518184015260208101905061025c565b50505050905001868103825287818151815260200191508051906020019060200280838360005b838110156102b957808201518184015260208101905061029e565b505050509050019a505050505050505050505060405180910390f35b61038e600480360360208110156102eb57600080fd5b810190808035906020019064010000000081111561030857600080fd5b82018360208201111561031a57600080fd5b8035906020019184600183028401116401000000008311171561033c57600080fd5b91908080601f016020809104026020016040519081016040528093929190818152602001838380828437600081840152601f19601f820116905080830192505050505050509192919290505050610f51565b6040518082815260200191505060405180910390f35b6103da600480360360408110156103ba57600080fd5b8101908080359060200190929190803590602001909291905050506110e6565b6040518082815260200191505060405180910390f35b6104a96004803603602081101561040657600080fd5b810190808035906020019064010000000081111561042357600080fd5b82018360208201111561043557600080fd5b8035906020019184600183028401116401000000008311171561045757600080fd5b91908080601f016020809104026020016040519081016040528093929190818152602001838380828437600081840152601f19601f820116905080830192505050505050509192919290505050611189565b6040518082815260200191505060405180910390f35b6105ea60048036036101608110156104d657600080fd5b8101908080359060200190929190803560030b9060200190929190803560030b9060200190929190803560030b9060200190929190803560030b90602001909291908035151590602001909291908035151590602001909291908035906020019092919080359060200190929190803590602001909291908035906020019064010000000081111561056757600080fd5b82018360208201111561057957600080fd5b8035906020019184602083028401116401000000008311171561059b57600080fd5b919080806020026020016040519081016040528093929190818152602001838360200280828437600081840152601f19601f82011690508083019250505050505050919291929050505061131f565b005b6105f46117f7565b005b6106226004803603602081101561060c57600080fd5b8101908080359060200190929190505050611a4f565b6040518082815260200191505060405180910390f35b6106646004803603602081101561064e57600080fd5b8101908080359060200190929190505050611a6d565b6040518082815260200191505060405180910390f35b6106a66004803603602081101561069057600080fd5b8101908080359060200190929190505050611a8b565b6040518082815260200191505060405180910390f35b6106f2600480360360408110156106d257600080fd5b810190808035906020019092919080359060200190929190505050611a9e565b6040518080602001838152602001828103825284818151815260200191508051906020019060200280838360005b8381101561073b578082015181840152602081019050610720565b50505050905001935050505060405180910390f35b61077c6004803603602081101561076657600080fd5b8101908080359060200190929190505050611fc6565b6040518082815260200191505060405180910390f35b6107c8600480360360408110156107a857600080fd5b810190808035906020019092919080359060200190929190505050611fd9565b005b610800600480360360408110156107e057600080fd5b810190808035906020019092919080359060200190929190505050612033565b604051808060200180602001838103835285818151815260200191508051906020019080838360005b83811015610844578082015181840152602081019050610829565b50505050905090810190601f1680156108715780820380516001836020036101000a031916815260200191505b50838103825284818151815260200191508051906020019080838360005b838110156108aa57808201518184015260208101905061088f565b50505050905090810190601f1680156108d75780820380516001836020036101000a031916815260200191505b5094505050505060405180910390f35b6108ef612225565b6040518082815260200191505060405180910390f35b6000600d60000180549050141561094a57600d60000160009080600181540180825580915050906001820390600052602060002001600090919260001b909190915055505b600d60000182908060018154018082558091505090600182039060005260206000200160009091929091909150555080600d60010160008481526020019081526020016000208190555060006001600d600001805490500390505b600181118015610a1e5750600d6001016000600d60000183815481106109c757fe5b9060005260206000200154815260200190815260200160002054600d6001016000600d600001600285816109f757fe5b0481548110610a0257fe5b9060005260206000200154815260200190815260200160002054115b15610aa95782600d60000160028381610a3357fe5b0481548110610a3e57fe5b9060005260206000200154600d60000160028481610a5857fe5b0481548110610a6357fe5b906000526020600020016000600d6000018581548110610a7f57fe5b90600052602060002001600084919050558391905055505060028181610aa157fe5b0490506109a5565b505050565b60608060608060606000600160008881526020019081526020016000206000015490506000809050600080831115610f455782600702604051908082528060200260200182016040528015610b125781602001602082028038833980820191505090505b50975082604051908082528060200260200182016040528015610b445781602001602082028038833980820191505090505b50965082604051908082528060200260200182016040528015610b765781602001602082028038833980820191505090505b50955082604051908082528060200260200182016040528015610ba85781602001602082028038833980820191505090505b50945060008091505b83821015610e3657600160008b81526020019081526020016000206001016000838152602001908152602001600020549050600080600083815260200190815260200160002090506000600784029050828b8281518110610c0e57fe5b602002602001019060030b908160030b815250508160000160009054906101000a900460030b8b6001830181518110610c4357fe5b602002602001019060030b908160030b815250508160000160049054906101000a900460030b8b6002830181518110610c7857fe5b602002602001019060030b908160030b815250508160030160009054906101000a900460030b8b6003830181518110610cad57fe5b602002602001019060030b908160030b815250508160030160049054906101000a900460030b8b6004830181518110610ce257fe5b602002602001019060030b908160030b815250508160000160089054906101000a900460ff1615610d375760018b6005830181518110610d1e57fe5b602002602001019060030b908160030b81525050610d5d565b60008b6005830181518110610d4857fe5b602002602001019060030b908160030b815250505b8160000160099054906101000a900460ff1615610d9e5760018b6006830181518110610d8557fe5b602002602001019060030b908160030b81525050610dc4565b60008b6006830181518110610daf57fe5b602002602001019060030b908160030b815250505b81600501546001860101945081600201548a8581518110610de157fe5b6020026020010181815250508160010154898581518110610dfe57fe5b6020026020010181815250508160040154888581518110610e1b57fe5b60200260200101818152505050508180600101925050610bb1565b82604051908082528060200260200182016040528015610e655781602001602082028038833980820191505090505b5094506000809050600092505b84831015610f4257600160008c8152602001908152602001600020600101600084815260200190815260200160002054915060008060008481526020019081526020016000209050806005015460001b878380600101945081518110610ed457fe5b60200260200101818152505060008090505b8160050154811015610f335781600601600082815260200190815260200160002054888480600101955081518110610f1a57fe5b6020026020010181815250508080600101915050610ee6565b50508280600101935050610e72565b50505b50505091939590929450565b60008060019050600080905060008090505b84518110156110db576000858281518110610f7a57fe5b602001015160f81c60f81b9050600080600090505b600c80546001816001161561010002031660029004905081101561107057827effffffffffffffffffffffffffffffffffffffffffffffffffffffffffffff1916600c82815460018160011615610100020316600290048110610fee57fe5b81546001161561100d5790600052602060002090602091828204019190065b9054901a7f0100000000000000000000000000000000000000000000000000000000000000027effffffffffffffffffffffffffffffffffffffffffffffffffffffffffffff1916141561106357809150611070565b8080600101915050610f8f565b5060008090505b60058110156110cb576000600b828154811061108f57fe5b90600052602060002001549050866110b9576002860295506000818416146110b8576001860195505b5b86159650508080600101915050611077565b5050508080600101915050610f63565b508092505050919050565b6000818314156110f95760009050611183565b6060806111068585612033565b8092508193505050600061111983611189565b9050600061112683611189565b9050600061113385610f51565b9050600061114085610f51565b90506000808585111561115757858503915061115d565b84860391505b8383111561116f578383039050611175565b82840390505b808201985050505050505050505b92915050565b60008060019050600080905060008090505b84518110156113145760008582815181106111b257fe5b602001015160f81c60f81b9050600080600090505b600c8054600181600116156101000203166002900490508110156112a857827effffffffffffffffffffffffffffffffffffffffffffffffffffffffffffff1916600c8281546001816001161561010002031660029004811061122657fe5b8154600116156112455790600052602060002090602091828204019190065b9054901a7f0100000000000000000000000000000000000000000000000000000000000000027effffffffffffffffffffffffffffffffffffffffffffffffffffffffffffff1916141561129b578091506112a8565b80806001019150506111c7565b5060008090505b6005811015611304576000600b82815481106112c757fe5b9060005260206000200154905086156112f2576002860295506000818416146112f1576001860195505b5b861596505080806001019150506112af565b505050808060010191505061119b565b508092505050919050565b896000808d815260200190815260200160002060000160006101000a81548163ffffffff021916908360030b63ffffffff160217905550886000808d815260200190815260200160002060000160046101000a81548163ffffffff021916908360030b63ffffffff160217905550876000808d815260200190815260200160002060030160006101000a81548163ffffffff021916908360030b63ffffffff160217905550866000808d815260200190815260200160002060030160046101000a81548163ffffffff021916908360030b63ffffffff160217905550856000808d815260200190815260200160002060000160086101000a81548160ff021916908315150217905550846000808d815260200190815260200160002060000160096101000a81548160ff021916908315150217905550836000808d815260200190815260200160002060010181905550826000808d815260200190815260200160002060020181905550816000808d815260200190815260200160002060040181905550806000815181106114b057fe5b602002602001015160026000836000815181106114c957fe5b60200260200101518152602001908152602001600020600101600060026000856000815181106114f557fe5b60200260200101518152602001908152602001600020600001548152602001908152602001600020600001819055508060018251038151811061153457fe5b6020026020010151600260008360008151811061154d57fe5b602002602001015181526020019081526020016000206001016000600260008560008151811061157957fe5b60200260200101518152602001908152602001600020600001548152602001908152602001600020600101819055508660026000836000815181106115ba57fe5b60200260200101518152602001908152602001600020600101600060026000856000815181106115e657fe5b6020026020010151815260200190815260200160002060000154815260200190815260200160002060020160006101000a81548163ffffffff021916908360030b63ffffffff16021790555088600260008360008151811061164457fe5b602002602001015181526020019081526020016000206001016000600260008560008151811061167057fe5b6020026020010151815260200190815260200160002060000154815260200190815260200160002060020160046101000a81548163ffffffff021916908360030b63ffffffff1602179055508a60026000836000815181106116ce57fe5b60200260200101518152602001908152602001600020600101600060026000856000815181106116fa57fe5b60200260200101518152602001908152602001600020600001600081548092919060010191905055815260200190815260200160002060020160086101000a81548163ffffffff021916908360030b63ffffffff16021790555060008060008d815260200190815260200160002060050154905060008090505b82518110156117ce5782818151811061178957fe5b60200260200101516000808f81526020019081526020016000206006016000848060010195508152602001908152602001600020819055508080600101915050611774565b50806000808e815260200190815260200160002060050181905550505050505050505050505050565b6001600d600001805490501161180c57600080fd5b6001600d600001805490501161182157600080fd5b600061182b612225565b9050600d6000016001600d60000180549050038154811061184857fe5b9060005260206000200154600d60000160018154811061186457fe5b9060005260206000200181905550600d60000180548061188057fe5b600190038181906000526020600020016000905590556000600190505b600d60000180549050600282021015611a31576000600282029050600d6000018054905060018201101561194057600d6001016000600d60000160018401815481106118e557fe5b9060005260206000200154815260200190815260200160002054600d6001016000600d600001848154811061191657fe5b9060005260206000200154815260200190815260200160002054111561193f5780806001019150505b5b600d6001016000600d600001838154811061195757fe5b9060005260206000200154815260200190815260200160002054600d6001016000600d600001858154811061198857fe5b906000526020600020015481526020019081526020016000205410156119ae5750611a31565b600d60000181815481106119be57fe5b9060005260206000200154600d60000183815481106119d957fe5b9060005260206000200154600d60000184815481106119f457fe5b906000526020600020016000600d6000018581548110611a1057fe5b9060005260206000200160008491905055839190505550508091505061189d565b600d6001016000838152602001908152602001600020600090555050565b60026020528060005260406000206000915090508060000154905081565b60016020528060005260406000206000915090508060000154905081565b6000816003819055506003549050919050565b60606000611aad846000610905565b6000600760020160008681526020019081526020016000208190555083600760010160006007600001548152602001908152602001600020819055506007600001600081548092919060010191905055506000805b6001600d600001805490501115611fbd57611b1b612225565b9150611b256117f7565b600060026000848152602001908152602001600020905085831415611d1157600760020160008481526020019081526020016000205493506000869050600460000154604051908082528060200260200182016040528015611b965781602001602082028038833980820191505090505b50955060008090505b888214611be55781878281518110611bb357fe5b602002602001018181525050600460020160008381526020019081526020016000205491508080600101915050611b9f565b88878281518110611bf257fe5b60200260200101818152505060008090505b600460000154811015611c685760046002016000600460010160008481526020019081526020016000205481526020019081526020016000206000905560046001016000828152602001908152602001600020600090558080600101915050611c04565b50600060046000018190555060008090505b600760000154811015611cde5760076002016000600760010160008481526020019081526020016000205481526020019081526020016000206000905560076001016000828152602001908152602001600020600090558080600101915050611c7a565b5060006007600001819055505b6001600d600001805490501115611d0957611d046117f7565b611ceb565b505050611fbd565b60008090505b8160000154811015611fb657600060026000868152602001908152602001600020600101600083815260200190815260200160002060020160049054906101000a900460030b60030b6007600201600087815260200190815260200160002054019050600060076002016000856001016000868152602001908152602001600020600101548152602001908152602001600020541480611de45750600760020160008460010160008581526020019081526020016000206001015481526020019081526020016000205481105b15611fa857600060076002016000856001016000868152602001908152602001600020600101548152602001908152602001600020541415611e6e5782600101600083815260200190815260200160002060010154600760010160006007600001548152602001908152602001600020819055506007600001600081548092919060010191905055505b806007600201600085600101600086815260200190815260200160002060010154815260200190815260200160002081905550611ec383600101600084815260200190815260200160002060010154896110e6565b6003548202019350611eed8360010160008481526020019081526020016000206001015485610905565b6000801b60046002016000856001016000868152602001908152602001600020600101548152602001908152602001600020541415611f745782600101600083815260200190815260200160002060010154600460010160006004600001548152602001908152602001600020819055506004600001600081548092919060010191905055505b8460046002016000856001016000868152602001908152602001600020600101548152602001908152602001600020819055505b508080600101915050611d17565b5050611b02565b50509250929050565b600081600a81905550600a549050919050565b60006001600084815260200190815260200160002060000160008154809291906001019190505590508160016000858152602001908152602001600020600101600083815260200190815260200160002081905550505050565b606080600084905060008490506000602060ff16905060008060009050600091505b828210156120d85783826020811061206957fe5b1a60f81b7effffffffffffffffffffffffffffffffffffffffffffffffffffffffffffff191685836020811061209b57fe5b1a60f81b7effffffffffffffffffffffffffffffffffffffffffffffffffffffffffffff1916146120cb576120d8565b8180600101925050612055565b81600a5403905060008090506060826040519080825280601f01601f1916602001820160405280156121195781602001600182028038833980820191505090505b5090506060836040519080825280601f01601f1916602001820160405280156121515781602001600182028038833980820191505090505b50905060008590505b600a5481101561220f5788816020811061217057fe5b1a60f81b83858151811061218057fe5b60200101907effffffffffffffffffffffffffffffffffffffffffffffffffffffffffffff1916908160001a9053508781602081106121bb57fe5b1a60f81b8285815181106121cb57fe5b60200101907effffffffffffffffffffffffffffffffffffffffffffffffffffffffffffff1916908160001a9053508380600101945050808060010191505061215a565b5081819950995050505050505050509250929050565b60006001600d600001805490501161223c57600080fd5b600d60000160018154811061224d57fe5b906000526020600020015490509056fea265627a7a7231582014462944c81c04cdb10ec48b19562629869fe77394949baef18fba27f8c8803c64736f6c63430005100032",
  "source": "pragma solidity ^0.5.16;\n\ncontract StoreMap{\n\t// \n\tstruct one_type\n\t{\t\n\t\tint32 minzoom;\n\t\tint32 cost;\n\t\tbool  oneway;\n\t\tbool  building;\n\t\tbytes32 highway;\n\t\tbytes32 name;   // \n\t\tint32 source;\n\t\tint32 target;\n\t\tbytes32 gtype;\n\t\tuint256 path_num;\n\t\tmapping(uint256 => bytes32) path;\n\t}\n\t//gid->one_type,store real types\n\tmapping(uint256 => one_type) types;\n\t// ,\n\tstruct  area_types{\n\t\tuint256 num;\n\t\t// num->gid,store gids of roads in the area\n\t\tmapping(uint256 => uint256) types_list;\n\t}\n\t// \n\tmapping(bytes32 => area_types) public geo_maps;\n\n\t//-----------------cjz--------------------------------------------------\n\t//\n\tstruct adj\n\t{\t\n\t\tbytes32 sourceGeohash;\n\t\tbytes32 targetGeohash;\n\t\tint32 target;\n\t\tint32 cost;\n\t\tint32 gid;\n\t}\n\t//\n\tstruct adj_types{\n\t\tuint256 adjnum;\n\t\tmapping (uint256 => adj) adjs;\n\t}\n\t//geohash\n\tmapping(bytes32 => adj_types) public adjacencyList;\n\n\t//P\n\tuint256 P = 1;\n\n\tstruct pathType{\n\t\tuint256 num;\n\t\tmapping(uint256 => bytes32) index;\n\t\tmapping(bytes32 => bytes32) map;\n\t}\n\tstruct costSofarType{\n\t\tuint256 num;\n\t\tmapping(uint256 => bytes32) index;\n\t\tmapping(bytes32 => uint256) map;\n\t}\n\t//\n\tpathType paths;\n\t//\n\tcostSofarType costSofar;\n\t//-----------------cjz--------------------------------------------------\n\t\n\n\n\t// geohash\n\tfunction get_types(bytes32 hash) view public returns (int32[] memory feature, bytes32[] memory names, bytes32[] memory highways, bytes32[] memory gtypes, bytes32[] memory path) {\n\t\tuint256 num = geo_maps[hash].num;\n\t\tuint256 path_num = 0;\n\t\t//different parm in different domain may cause duplicate declare error when compile, maybe a bug\n\t\tuint256 i;\n\n\t\tif(num > 0){\n\t\t\tfeature = new int32[](7 * num);\n\t\t\tnames = new bytes32[]( num );\n\t\t\thighways = new bytes32[]( num );\n\t\t\tgtypes = new bytes32[]( num );\n\t\t\tuint256 gid;\n\t\t\tfor(i=0; i < num; i++){\n\t\t\t\tgid = geo_maps[hash].types_list[i]; \n\t\t\t\tone_type storage single_type = types[gid];\n\t\t\t\tuint256 base = i * 7;\n\t\t\t\tfeature[base] = int32(gid);\n\t\t\t\tfeature[base + 1] = single_type.minzoom;\n\t\t\t\tfeature[base + 2] = single_type.cost;\n\t\t\t\tfeature[base + 3] = single_type.source;\n\t\t\t\tfeature[base + 4] = single_type.target;\n\t\t\t\tif(single_type.oneway){\n\t\t\t\t\tfeature[base + 5] = 1;\n\t\t\t\t}\n\t\t\t\telse{\n\t\t\t\t\tfeature[base + 5] = 0;\n\t\t\t\t}\n\t\t\t\tif(single_type.building){\n\t\t\t\t\tfeature[base + 6] = 1;\n\t\t\t\t}\n\t\t\t\telse{\n\t\t\t\t\tfeature[base + 6] = 0;\n\t\t\t\t}\n\t\t\t\tpath_num = path_num + 1 + single_type.path_num;\n\t\t\t\tnames[i] = single_type.name;\n\t\t\t\thighways[i] = single_type.highway;\n\t\t\t\tgtypes[i] = single_type.gtype;\n\t\t\t}\n\t\t\tpath = new bytes32[](path_num);\n\t\t\tuint256 pos = 0;\n\t\t\tfor(i=0; i< num; i++){\n\t\t\t\tgid = geo_maps[hash].types_list[i];\n\t\t\t\t//may cause duplicate declare, don't know why\n\t\t\t\tone_type storage single_type2 = types[gid];\n\t\t\t\tpath[pos++] = bytes32(single_type2.path_num);\n\t\t\t\tfor(uint256 j=0; j< single_type2.path_num; j++){\n\t\t\t\t\tpath[pos++] = single_type2.path[j];\n\t\t\t\t}\n\t\t\t}\n\t\t}\n\t}\n\n\t// \n\tfunction add_onetype(uint256 gid, int32 minzoom, int32 cost, int32 source, int32 target, bool oneway, bool building, bytes32 highway, bytes32 name, bytes32 gtype, bytes32[] memory path) public {\n\t\ttypes[gid].minzoom = minzoom;\n\t\ttypes[gid].cost = cost;\n\t\ttypes[gid].source = source;\n\t\ttypes[gid].target = target;\n\t\ttypes[gid].oneway = oneway;\n\t\ttypes[gid].building = building;\n\t\ttypes[gid].highway = highway;\n\t\ttypes[gid].name = name;\n\t\ttypes[gid].gtype = gtype;\n\n\t\tadjacencyList[path[0]].adjs[adjacencyList[path[0]].adjnum].sourceGeohash = path[0];\n\t\tadjacencyList[path[0]].adjs[adjacencyList[path[0]].adjnum].targetGeohash = path[path.length - 1];\n\t\tadjacencyList[path[0]].adjs[adjacencyList[path[0]].adjnum].target = target;\n\t\tadjacencyList[path[0]].adjs[adjacencyList[path[0]].adjnum].cost = cost;\n\t\tadjacencyList[path[0]].adjs[adjacencyList[path[0]].adjnum++].gid = int32(gid);\n\n\t\tuint256 num = types[gid].path_num;\n\t\tfor(uint256 i=0; i< path.length; i++){\n\t\t\ttypes[gid].path[num++] = path[i];\n\t\t}\n\t\ttypes[gid].path_num = num;\n\t}\n\n\t//bind a line to an area \n\tfunction add_area_line(bytes32 hash, uint256 gid) public {\n\t\tuint256 num = geo_maps[hash].num++;\n\t\tgeo_maps[hash].types_list[num] = gid;\n\t}\n\t//astar\n\tfunction astar(bytes32 startGeohash, bytes32 endGeohash) public returns(bytes32[] memory backwards, uint256 costAll){\n\t\tenqueue(startGeohash, 0);\n\t\tcostSofar.map[startGeohash] = 0;\n\t\tcostSofar.index[costSofar.num] = startGeohash;\n\t\tcostSofar.num++;\n\t\tbytes32 currentGeohash;\n\t\tuint256 priority;\n\t\twhile (frontier.geohashs.length > 1) {\n\t\t\tcurrentGeohash = top(); \n\t\t\t//remove smallest item\n\t\t\tdequeue();\n\t\t\tadj_types storage adjNodes = adjacencyList[currentGeohash];\n\t\t\tif (currentGeohash == endGeohash) {\n\t\t\t\tcostAll = costSofar.map[currentGeohash];\n\t\t\t\t//paths\n\t\t\t\tbytes32 current = endGeohash;\n\t\t\t\tbackwards = new bytes32[](paths.num);\n\t\t\t\tuint256 i = 0;\n\t\t\t\twhile(current != startGeohash){\n\t\t\t\t\tbackwards[i] = current;\n\t\t\t\t\tcurrent = paths.map[current];\n\t\t\t\t\ti++;\n\t\t\t\t}\n\t\t\t\tbackwards[i] = startGeohash;\n\t\t\t\t//\n\t\t\t\tfor(uint256 j = 0; j < paths.num; j++){\n\t\t\t\t\tdelete paths.map[paths.index[j]];\n\t\t\t\t\tdelete paths.index[j];\n\t\t\t\t}\n\t\t\t\tpaths.num = 0;\n\t\t\t\tfor(uint256 j = 0; j < costSofar.num; j++){\n\t\t\t\t\tdelete costSofar.map[costSofar.index[j]];\n\t\t\t\t\tdelete costSofar.index[j];\n\t\t\t\t}\n\t\t\t\tcostSofar.num = 0;\n\t\t\t\twhile (frontier.geohashs.length > 1){\n\t\t\t\t\tdequeue();\n\t\t\t\t}\n\t\t\t\tbreak;\n\t\t\t}\n\n\t\t\tfor (uint256 i = 0; i < adjNodes.adjnum; i++) {\n\t\t\t\tuint256 newCost = costSofar.map[currentGeohash] + uint256(adjacencyList[currentGeohash].adjs[i].cost);\n\t\t\t\tif (costSofar.map[adjNodes.adjs[i].targetGeohash] == 0 || newCost < costSofar.map[adjNodes.adjs[i].targetGeohash]) {\n\t\t\t\t\tif(costSofar.map[adjNodes.adjs[i].targetGeohash] == 0){\n\t\t\t\t\t\tcostSofar.index[costSofar.num] = adjNodes.adjs[i].targetGeohash;\n\t\t\t\t\t\tcostSofar.num++;\n\t\t\t\t\t}\n\t\t\t\t\tcostSofar.map[adjNodes.adjs[i].targetGeohash] = newCost;\n\t\t\t\t\tpriority = newCost * P + manhattan(adjNodes.adjs[i].targetGeohash, endGeohash);\n\t\t\t\t\tenqueue(adjNodes.adjs[i].targetGeohash, priority);\n\t\t\t\t\tif(paths.map[adjNodes.adjs[i].targetGeohash] == 0x0000000000000000000000000000000000000000000000000000000000000000){\n\t\t\t\t\t\tpaths.index[paths.num] = adjNodes.adjs[i].targetGeohash;\n\t\t\t\t\t\tpaths.num++;\n\t\t\t\t\t}\n\t\t\t\t\tpaths.map[adjNodes.adjs[i].targetGeohash] = currentGeohash;\n\t\t\t\t}\n\t\t\t}\n\t\t}\n\t}\n\t\n\t\n\tfunction manhattan(bytes32 nextGeohash, bytes32 endGeohash) public view returns (uint256){\n\t\tif(nextGeohash == endGeohash){\n\t\t\treturn 0;\n\t\t}\n\t\t//geohash\n\t\t\n\t\t//\n\t\tstring memory shortNext;\n\t\tstring memory shortEnd;\n\t\t\n\t\t(shortNext, shortEnd) = sliceGeoHash(nextGeohash, endGeohash);\n\n\t\tuint256 dislat1 = getLatBlock(shortNext);\n\t\tuint256 dislat2 = getLatBlock(shortEnd);\n\t\tuint256 dislon1 = getLonBlock(shortNext);\n\t\tuint256 dislon2 = getLonBlock(shortEnd);\n\t\t\n\t\tuint256 dislat;\n\t\tuint256 dislon;\n\t\tif(dislat2 > dislat1){\n\t\t\tdislat = dislat2 - dislat1;\n\t\t}else{\n\t\t\tdislat = dislat1 - dislat2;\n\t\t}\n\t\tif(dislon2 > dislon1){\n\t\t\tdislon = dislon2 - dislon1;\n\t\t}else{\n\t\t\tdislon = dislon1 - dislon2;\n\t\t}\n\t\treturn (dislat + dislon);\n\t}\n\t\n\t//geohash8\n\tuint256 PRECISION = 8;\n\tfunction changePrecision(uint256 newPrecision) public returns (uint256){\n\t\tPRECISION = newPrecision;\n\t\treturn PRECISION;\n\t}\n\tfunction changeP(uint256 newP) public returns (uint256){\n\t\tP = newP;\n\t\treturn P;\n\t}\n\tfunction sliceGeoHash(bytes32 geohash1, bytes32 geohash2) public view returns (string memory, string memory){\n\t\tbytes32 geo1 = geohash1;\n\t\tbytes32 geo2 = geohash2;\n\t\tuint256 len = geo1.length;\n\t\t//geohash different start index\n\t\tuint256 index;\n\t\t//geohash different length\n\t\tuint256 dif = 0;\n\t\tfor (index = 0; index < len; index++) {\n\t\t\tif (geo1[index] != geo2[index]) {\n\t\t\t\tbreak;\n\t\t\t}\n\t\t}\n\t\tdif = PRECISION - index;\n\t\tuint256 index2 = 0;\n\t\tbytes memory shortGeo1 = new bytes(dif);\n\t\tbytes memory shortGeo2 = new bytes(dif);\n\t\tfor (uint256 j = index; j < PRECISION; j++) {\n\t\t\tshortGeo1[index2] = geo1[j];\n\t\t\tshortGeo2[index2] = geo2[j];\n\t\t\tindex2++;\n\t\t}\n\t\treturn (string(shortGeo1), string(shortGeo2));\n\t}\n\t\n\tuint256[] Bits = [16, 8, 4, 2, 1];\n\tstring Base32 = \"0123456789bcdefghjkmnpqrstuvwxyz\";\n\t//geohash\n\tfunction getLatBlock(string memory geohash) public view returns (uint256) {\n\t\t//geohash\n\t\tbool even = true;\n\t\tuint256 lat = 0;\n\t\tfor (uint256 i = 0; i < bytes(geohash).length; i++) {\n\t\t\tbyte c = bytes(geohash)[i];\n\t\t\tuint256 cd;\n\t\t\tfor (uint256 j = 0; j < bytes(Base32).length; j++) {\n\t\t\t\tif (bytes(Base32)[j] == c) {\n\t\t\t\t\tcd = j;\n\t\t\t\t\tbreak;\n\t\t\t\t}\n\t\t\t}\n\t\t\tfor (uint256 j = 0; j < 5; j++) {\n\t\t\t\tuint256 mask = Bits[j];\n\t\t\t\tif (even) {\n\t\t\t\t\tlat = lat * 2;\n\t\t\t\t\tif ((cd & mask) != 0) {\n\t\t\t\t\t\tlat = lat + 1;\n\t\t\t\t\t}\n\t\t\t\t}\n\t\t\t\teven = !even;\n\t\t\t}\n\t\t}\n\t\treturn lat;\n\t}\n\t//geohash\n\tfunction getLonBlock(string memory geohash) public view returns (uint256) {\n\t\t//geohash\n\t\tbool even = true;\n\t\tuint256 lon = 0;\n\t\tfor (uint256 i = 0; i < bytes(geohash).length; i++) {\n\t\t\tbyte c = bytes(geohash)[i];\n\t\t\tuint256 cd;\n\t\t\tfor (uint256 j = 0; j < bytes(Base32).length; j++) {\n\t\t\t\tif (bytes(Base32)[j] == c) {\n\t\t\t\t\tcd = j;\n\t\t\t\t\tbreak;\n\t\t\t\t}\n\t\t\t}\n\t\t\tfor (uint256 j = 0; j < 5; j++) {\n\t\t\t\tuint256 mask = Bits[j];\n\t\t\t\tif (!even) {\n\t\t\t\t\tlon = lon * 2;\n\t\t\t\t\tif ((cd & mask) != 0) {\n\t\t\t\t\t\tlon = lon + 1;\n\t\t\t\t\t}\n\t\t\t\t}\n\t\t\t\teven = !even;\n\t\t\t}\n\t\t}\n\t\treturn lon;\n\t}\n\t\n\t//\n\tstruct Heap {\n\t\tbytes32[] geohashs;\n\t\tmapping(bytes32 => uint256) map;\n\t}\n\t//\n\tHeap frontier;\n\t//\n\tmodifier notEmpty() {\n\t\trequire(frontier.geohashs.length > 1);\n\t\t_;\n\t}\n\t//\n\tfunction top() public view notEmpty() returns(bytes32) {\n\t\treturn frontier.geohashs[1];\n\t}\n\t//\n\tfunction dequeue() public notEmpty(){\n\t\trequire(frontier.geohashs.length > 1);\n\t\t\n\t\tbytes32 toReturn = top();\n\t\tfrontier.geohashs[1] = frontier.geohashs[frontier.geohashs.length - 1];\n\t\tfrontier.geohashs.pop();\n\n\t\tuint256 i = 1;\n\n\t\twhile (i * 2 < frontier.geohashs.length) {\n\t\t\tuint256 j = i * 2;\n\n\t\t\tif (j + 1 < frontier.geohashs.length)\n\t\t\t\tif (frontier.map[frontier.geohashs[j]] > frontier.map[frontier.geohashs[j + 1]]) \n\t\t\t\t\tj++;\n\t\t\t\n\t\t\tif (frontier.map[frontier.geohashs[i]] < frontier.map[frontier.geohashs[j]])\n\t\t\t\tbreak;\n\t\t\t\n\t\t\t(frontier.geohashs[i], frontier.geohashs[j]) = (frontier.geohashs[j], frontier.geohashs[i]);\n\t\t\ti = j;\n\t\t}\n\t\tdelete frontier.map[toReturn];\n\t}\n\t//\n\tfunction enqueue(bytes32 geohash, uint256 cost) public {\n\t\tif (frontier.geohashs.length == 0) \n\t\t\t// initialize\n\t\t\tfrontier.geohashs.push(0x0000000000000000000000000000000000000000000000000000000000000000); \n\t\t\n\t\tfrontier.geohashs.push(geohash);\n\t\tfrontier.map[geohash] = cost;\n\t\tuint256 i = frontier.geohashs.length - 1;\n\t\twhile (i > 1 && frontier.map[frontier.geohashs[i / 2]] > frontier.map[frontier.geohashs[i]]) {\n\t\t\t(frontier.geohashs[i / 2], frontier.geohashs[i]) = (geohash, frontier.geohashs[i / 2]);\n\t\t\ti /= 2;\n\t\t}\n\t}\n}\n",
  "sourcePath": "/home/mmm/testCode/test02/contracts/StoreMap.sol",
  "compiler": {
    "name": "solc",
    "version": "0.5.16+commit.9c3226ce.Emscripten.clang"
  },
  "schemaVersion": "3.4.12",
  "updatedAt": "2023-03-07T06:04:54.714Z",
  "devdoc": {
    "methods": {}
  },
  "userdoc": {
    "methods": {}
  }
}