{
  "contractName": "TestContract",
  "abi": [
    {
      "anonymous": false,
      "inputs": [
        {
          "indexed": false,
          "internalType": "string",
          "name": "res",
          "type": "string"
        }
      ],
      "name": "Myevent",
      "type": "event"
    },
    {
      "inputs": [
        {
          "internalType": "string",
          "name": "uuid",
          "type": "string"
        }
      ],
      "name": "setVehicleStatus",
      "outputs": [],
      "stateMutability": "nonpayable",
      "type": "function"
    }
  ],
  "bytecode": "0x608060405234801561001057600080fd5b506103da806100206000396000f3fe608060405234801561001057600080fd5b506004361061002b5760003560e01c8063aa5d485214610030575b600080fd5b61004a60048036038101906100459190610238565b61004c565b005b6000808260405161005d91906102f2565b9081526020016040518091039020600001541461007d5761007c610309565b5b7fb58728ea1fc0389ea1078b5d1833ae97cedee74c5b53b4f6d4281af24be5867c816040516100ac9190610382565b60405180910390a160016000826040516100c691906102f2565b90815260200160405180910390206000018190555050565b6000604051905090565b600080fd5b600080fd5b600080fd5b600080fd5b6000601f19601f8301169050919050565b7f4e487b7100000000000000000000000000000000000000000000000000000000600052604160045260246000fd5b610145826100fc565b810181811067ffffffffffffffff821117156101645761016361010d565b5b80604052505050565b60006101776100de565b9050610183828261013c565b919050565b600067ffffffffffffffff8211156101a3576101a261010d565b5b6101ac826100fc565b9050602081019050919050565b82818337600083830152505050565b60006101db6101d684610188565b61016d565b9050828152602081018484840111156101f7576101f66100f7565b5b6102028482856101b9565b509392505050565b600082601f83011261021f5761021e6100f2565b5b813561022f8482602086016101c8565b91505092915050565b60006020828403121561024e5761024d6100e8565b5b600082013567ffffffffffffffff81111561026c5761026b6100ed565b5b6102788482850161020a565b91505092915050565b600081519050919050565b600081905092915050565b60005b838110156102b557808201518184015260208101905061029a565b60008484015250505050565b60006102cc82610281565b6102d6818561028c565b93506102e6818560208601610297565b80840191505092915050565b60006102fe82846102c1565b915081905092915050565b7f4e487b7100000000000000000000000000000000000000000000000000000000600052600160045260246000fd5b600082825260208201905092915050565b600061035482610281565b61035e8185610338565b935061036e818560208601610297565b610377816100fc565b840191505092915050565b6000602082019050818103600083015261039c8184610349565b90509291505056fea2646970667358221220bb5d396061ec56e063cd8629c71c490ff8e3b127a6458ddf8b53bad1d409930d64736f6c63430008120033",
  "immutableReferences": {},
  "source": "// SPDX-License-Identifier: UNLICENSED\npragma solidity >=0.7.0 <0.9.0;\n\ncontract TestContract {\n    struct Vehicle {\n        uint256 status;\n    }\n\n    mapping(string => Vehicle) vehicles;\n\n    //id\n    event Myevent(string res);\n\n    //id\n    function setVehicleStatus(string memory uuid) public {\n        assert(vehicles[uuid].status == 0);\n        emit Myevent(uuid);\n        vehicles[uuid].status = 1;\n    }\n}",
  "sourcePath": "/home/mmm/testCode/test02/contracts/TestContract.sol",
  "compiler": {
    "name": "solc",
    "version": "0.8.18+commit.87f61d96.Emscripten.clang"
  },
  "schemaVersion": "3.4.12",
  "updatedAt": "2023-03-06T05:44:31.463Z",
  "devdoc": {
    "kind": "dev",
    "methods": {},
    "version": 1
  },
  "userdoc": {
    "kind": "user",
    "methods": {},
    "version": 1
  }
}