{
  "contractName": "TestContract",
  "abi": [
    {
      "anonymous": false,
      "inputs": [
        {
          "indexed": false,
          "internalType": "string",
          "name": "res",
          "type": "string"
        }
      ],
      "name": "Myevent",
      "type": "event"
    },
    {
      "constant": false,
      "inputs": [
        {
          "internalType": "string",
          "name": "uuid",
          "type": "string"
        }
      ],
      "name": "setVehicleStatus",
      "outputs": [],
      "payable": false,
      "stateMutability": "nonpayable",
      "type": "function"
    }
  ],
  "bytecode": "0x608060405234801561001057600080fd5b506102a6806100206000396000f3fe608060405234801561001057600080fd5b506004361061002b5760003560e01c8063aa5d485214610030575b600080fd5b6100e96004803603602081101561004657600080fd5b810190808035906020019064010000000081111561006357600080fd5b82018360208201111561007557600080fd5b8035906020019184600183028401116401000000008311171561009757600080fd5b91908080601f016020809104026020016040519081016040528093929190818152602001838380828437600081840152601f19601f8201169050808301925050505050505091929192905050506100eb565b005b600080826040518082805190602001908083835b6020831061012257805182526020820191506020810190506020830392506100ff565b6001836020036101000a0380198251168184511680821785525050505050509050019150509081526020016040518091039020600001541461016057fe5b7fb58728ea1fc0389ea1078b5d1833ae97cedee74c5b53b4f6d4281af24be5867c816040518080602001828103825283818151815260200191508051906020019080838360005b838110156101c25780820151818401526020810190506101a7565b50505050905090810190601f1680156101ef5780820380516001836020036101000a031916815260200191505b509250505060405180910390a160016000826040518082805190602001908083835b602083106102345780518252602082019150602081019050602083039250610211565b6001836020036101000a0380198251168184511680821785525050505050509050019150509081526020016040518091039020600001819055505056fea265627a7a72315820093a983c494f1886baceb9cc04a6f98f770896f530824c69874c7cb13e105a3a64736f6c63430005100032",
  "source": "// SPDX-License-Identifier: UNLICENSED\npragma solidity ^0.5.16;\n\ncontract TestContract {\n    struct Vehicle {\n        uint256 status;\n    }\n\n    mapping(string => Vehicle) vehicles;\n\n    //返回车辆id\n    event Myevent(string res);\n\n    //当车辆状态改变后触发事件，返回车辆id\n    function setVehicleStatus(string memory uuid) public {\n        assert(vehicles[uuid].status == 0);\n        emit Myevent(uuid);\n        vehicles[uuid].status = 1;\n    }\n}",
  "sourcePath": "/home/mmm/testCode/test02/contracts/TestContract.sol",
  "compiler": {
    "name": "solc",
    "version": "0.5.16+commit.9c3226ce.Emscripten.clang"
  },
  "schemaVersion": "3.4.12",
  "updatedAt": "2023-03-07T06:02:00.346Z",
  "devdoc": {
    "methods": {}
  },
  "userdoc": {
    "methods": {}
  }
}